:0E00850075C1FFC2AF75A7E575C2A575C35A58
:03009300D2AF22C7
:0B009600C2AF75C2A575C35AD2AF22DD
:0C00A100A2AF9218C2AF43A70475C2A51D
:0800AD0075C35AA21892AF229C
:0C00B500A2AF9218C2AFAFA75307FB8F99
:0C00C100A775C2A575C35AA21892AF2201
:0600CD007F00D282C28513
:0900D300300406C282D282C2048C
:0200DC007E00A4
:0E00DE00EE24F84012C280EF2FFF3081010F98
:0900EC00A2819283D2800E80E90A
:0A00F5002004DBC282D2858F822234
:0400000002002332A5
:01000B0032C2
:0300130002124A8C
:03001B0002127A54
:0300820002001E5B
:05001E001200FF80FE4E
:0A00FF00C07C85817C05817F00A88C
:070109007C087600C218C259
:0A01100019E5A703540124FF921A19
:0A011A00C297C007C023121C1BD0BF
:0C0124002353BDFE75985043BAE043BD64
:0E0130000275BF2F75BEF043BD01759955C015
:05013E0023121238D06D
:0A01430023D007201A527C007D0033
:0E014D00C007901DD4E493FB7A00901DFEE4E1
:0B015B0093C4540FFF8FF005F08006E6
:06016600EB2BFBEA33FA6B
:0E016C00D5F0F7C3EB9CEA9DD007402375D178
:0A017A006075D21D75D34075D16188
:0E018400E5D1248050FAC2AF75C2A575C35AEA
:09019200D2AF0CBC00B50D80B227
:0E019B0075C1FFC2AF75A7E575C2A575C35A41
:0E01A900D2AFC2AF43A70475C2A575C35AD228
:0101B700AF98
:0E01B800C2AF75C2A575C35AD2AFC2AF75C231
:0E01C600A575C35AD2AF901D0DE493FDBDFF89
:0301D400028003A3
:0301D70002038997
:0601DA003010030203894E
:0801E000E57A30E00302038917
:0901E800C007C0231200CD85827E
:0601F10025D023D00720F9
:0401F700191385252E
:0701FB0024201A0BC007C00D
:0502020023120F53D090
:0302070023D007FA
:02020A00D21907
:07020C00E524B52502804541
:06021300E5246525FDA8AD
:0C0219007C08E6901C6C93FC5D6015EC0A
:0A02250055287010A87C088682C0DE
:07022F0007C023120404D0F4
:0302360023D007CB
:0A023900A87C08E6901C6C93FD55AC
:07024300254224EDF4FD4506
:04024A00255224A86D
:0A024E007C0806A87C08E65407F6B9
:0B025800748025D1500BC007C023129A
:06026300093FD023D00783
:020269007D0016
:08026B00ED24F85003020358D2
:0E027300C007ED2D25E024D5901D0093FC530F
:0B028100040C8D82C005C004C02312D5
:0C028C001089AA82AB83AEF0D023D0040E
:0E029800D005EDC31324CE901D0093FF74011A
:0C02A6005D75F004A4F5F005F0EF800297
:0202B200C31374
:0B02B400D5F0FB540FFFBF01028005D6
:0502BF00D0070203540A
:0A02C400D007BC0405BA0102800E49
:0602CE00BC0803EA600811
:0502D400BC0C028003D8
:0302D90002034ECF
:0C02DC00ED2436F9E7FE547F706EED2D26
:0E02E80025E024D6901D0093FC743F5C24801A
:0C02F600F7ED242DF98D037C000BBB00FC
:02030200010CEC
:0E030400ECA2E713CB13CB74F62B901D0093E5
:0E031200FC74015D640175F004A4F5F005F0C3
:03032000EC80026C
:02032300C31302
:0E032500D5F0FB5407F7EE30E725ED901C6C89
:0603330093FC5528701B2D
:0C0339008D82C007C005C0231218C7D079
:0903450023D005D00750ED80061D
:06034E00ED2436F87600F4
:040354000D02026B29
:020358007D0026
:0C035A00ED24FE404EED243FF9E770203A
:0C036600ED242DF9870474405CFBBB40C3
:0C03720013208E10ED2DFB2419F87600EE
:08037E000876005304BFA70438
:030386000D80D116
:0C038900748025D1501E30101B75D1610E
:0A039500E57B24914004057B800EF7
:0B039F00758285C007C0231218C7D06C
:0303AA0023D00756
:0603AD00200903300A11D3
:0703B300C209C20AC007C025
:0503BA002312191AD006
:0503BF0023D007800AB5
:0203C4007E6455
:0803C6008E051D8D06EE70F896
:0803CE00D297209712BFFF0037
:0503D60050030F80122E
:0603DB00201803637A8183
:0403E100D2188008A6
:0603E500EF60031F80021F
:0203EB00C21836
:0803ED00E57A5401FEB40100A1
:0D03F500E433FE24FF92970201B81581D079
:020402007C225A
:081C6C00010204081020408071
:021D03000004DA
:011D0C0000D6
:011D0D00FFD6
:021D1700FFFFCC
:05007C00C200C201C238
:01008100027C
:0704040085824AE4F529F5A9
:04040B004BE54A254E
:08040F004A25E0F54824D5F56B
:0504170049854A821234
:07041C000BC9E5827001220B
:09042300AE4A7F000EBE00010F7D
:0E042C00EFA2E713CE13CE74F62E901D0093B0
:0C043A00FF7401554A640175F004A4F53C
:06044600F005F0EF80025A
:02044C00C313D8
:0A044E00D5F0FB5407F529854AF0AC
:0604580005F0E52480021E
:02045E00C313C6
:09046000D5F0FB5401FFB40100CA
:0B046900E433FF6016854AF005F0E563
:03047400258002DE
:02047700C313AD
:0B047900D5F0FB5401FFBF010280041E
:04048400C218800218
:02048800D21888
:05048A00A2189202E53A
:05048F004A243FF9873B
:080494002AE54AC31324CE90AF
:0C049C001D0093FF7401554A75F004A484
:0704A800F5F005F0EF800202
:0204AF00C31375
:0B04B100D5F0FB540FFFBF0102801AC2
:0504BC00BF02028035C3
:0604C100BF030302063B2D
:0604C700BF090302071348
:0604CD00BF0A03020854FF
:0304D300020937E4
:0804D600A20292F085F02385DB
:0804DE004A82120B7474082518
:0904E6004AF582A20292F085F0B1
:0504EF0023120B740252
:0204F4000937C6
:0604F60020020302057F55
:0804FC00E54A2436F974D72506
:0C05040048901D0093FF747F5F2480F777
:06051000E54A242DF8A6C7
:08051600297408254AF5821240
:0E051E001089AC82AD83AEF0ECA2E3E433FCB6
:09052C0024FF92008549827583C9
:0C0535001DE493FF530770BF0002800A12
:05054100BF100280095B
:05054600BF300A800433
:04054B00B200800674
:04054F00D200800254
:02055300C200E4
:07055500300015E549049098
:0D055C001D00935438C423541FFF2448F59C
:040569002A02093722
:0C056D00E54904901D0093FF74075F2413
:0605790040F52A020937DB
:0A057F007450552AFFBF4054854A0E
:0E05890082121089AC82AD83AEF0FFEC4D4EB5
:0A0597004F24FF920085498275830E
:0C05A1001DE493FF530770BF100280059B
:0505AD00BF200A8004DC
:0405B200D2008006ED
:0405B600C2008002FD
:0205BA00B2008D
:0C05BC00A200E433FE7F00C006C00785EB
:0A05C8004A82120F1F15811581E50C
:0705D2004A2436F87600020E
:0205D9000937E0
:0C05DB007408254AF582121089AC82AD2C
:0C05E70083AEF074D52548901D0093FFF2
:0C05F30030E31974085CFF7E00740825DA
:0C05FF004AF582C007C006120F1F1581CC
:04060B001581801FB6
:0C060F0074085CFFE4FEFDFB7408254A43
:0E061B00F582C007C006C005C003121185E5B8
:050629008124FCF581B5
:06062E00752A00E54A24D4
:0706340036F87600020937D9
:0A063B00E54A254A25E024D8FFF522
:0C0645008275831DE4935430FEC4540FF2
:09065100F54B7401B54B02800E5B
:07065A007402B54B02800B96
:070661007403B54B2980086A
:04066800C201802328
:04066C00D201801F18
:0C0670007408254AF582C007121089AA00
:0E067C0082AB83ADF0FED007630201EA4B4D66
:05068A004E24FF920167
:0A068F0030025A8F8275831DE49338
:0C069900FE30E313A201E433FE2480F5E0
:0406A5002AE54A24D4
:0706A90036F87680020937E4
:0C06B000A201E433FD7E00C005C00685F9
:0A06BC004A82120F1F15811581E517
:0506C6004A2436F9E5AD
:0806CB004A254A25E024D690DF
:0906D3001D00932480F7E54A2480
:0506DC002DF8A629A283
:0906E10001E433FE2480F52A0235
:0206EA000937CE
:0A06EC00E52A30E418A201E433FD12
:0C06F6007E00C005C006854A82120F1F5E
:070702001581158102093782
:08070900E54A2436F8760002EF
:020711000937A6
:09071300E54A254A25E024D590B1
:0C071C001D0093FEFFE54A24FE4049EF5B
:0607280030E00320021284
:0A072E0074025FFEA202B39218E409
:0807380033FD5E700302093776
:0A074000E54A254AFE2419F9870353
:0D074A00098705C3EB94FFED94FF40030207
:02075700093760
:0E075900EE2419F98705098706190DBD000168
:010767000E83
:08076800A70509A706020937E5
:0B077000E54A24FE25E025E024D5909A
:0B077B001D0093FEFF30E20320020F80
:0A07860074085FFEA202B39218E4AB
:0507900033FD5E604432
:0B0795007402B54A22E4F519F51A9031
:0B07A0001DD6E493FE74804EF53690E9
:0E07AB001DF6E49354F0C4540FFE74804EF516
:0307B9002D801D73
:0E07BC00E4F51BF51C901DD6E493FE74804EF0
:0C07CA00F537901DF7E493FE740F5E44B9
:0307D60080F52E7D
:0C07D9005307F07C00300220BF4002807B
:0107E5000310
:0307E600BF6002EF
:0207E9007C1181
:0507EB00BF8002800345
:0307F000BF9002B5
:0207F3007C1078
:0507F500BFC0028003FB
:0307FA00BFF0222B
:0407FD007C12801ECC
:05080100BF100280039E
:03080600BF90029E
:020809007C1160
:05080B00BF2002800384
:03081000BF6002C4
:020813007C1057
:05081500BF300280036A
:03081A00BFF0022A
:02081D007C124B
:0C081F00BC1215854A82121089AA82AB17
:0C082B0083ADF0FE6302014302108A045A
:06083700EC70030209371A
:0C083D0074015CFE7D00C006C005854A09
:0B08490082120F1F1581158102093774
:09085400E54A254A25E024D5906F
:0B085D001D0093FEFF30E00320020DA1
:07086800EF20E10302093754
:06086F003002030209370C
:0A087500C007E54A254AFE2419F9E0
:0B087F008703098705190BBB00010D62
:0C088A00A70309A705E54A241EF907E7AB
:0C08960074022549901D0093FB7D007446
:0C08A200032549901D0093FA7F002DFDF6
:0E08AE00EF3BFBEE2419F98706098707C3EE1E
:0E08BC009DEF9BD0074050EF23235403FCBC5C
:0C08CA000312854A82121089AB82AD83B4
:0808D600AEF0FF6303018B0487
:0508DE00BC02027C00D9
:0C08E3007F00C004C007854A82120F1F6E
:0B08EF00158115817408254AF582125E
:0908FA0018C7E54A241EF8760037
:0A090300208EFDE54A254AFF241965
:06090D00F87600087600F8
:0A091300E54A241EF98707E54904B0
:0D091D00901D0093FEC3EF9E40107408254E
:07092A004AF5821218C7E52F
:060931004A241EF87600C6
:06093700E54A243FF8A68A
:02093D002A226C
:0D093F0075D16075D20E75D3A075D161051C
:06094C002BE4B52B0205AF
:010952002C78
:0A095300E52B24FFFEE52C34FFFF26
:0B095D00EEF4FEEFF4FFE52B5206E580
:050968002C52077D0088
:03096D00BD1000BA
:080970005032EE30E0247C005F
:03097800BC0900B7
:0C097B00501DEC242DF9870353030FEBF3
:0C098700B5050DEC2436F9E7FB247F5089
:0409930003EB14F767
:030997000C80DEF3
:0A099A00EFC313CE13CEFF0D80C98A
:0209A4007F00D2
:0309A600BF080087
:0309A900400122E8
:0809AC00EF243FF9872AEF2434
:0909B40036F98706BE80028003BB
:0309BD00020B70BA
:0809C000E52A20E703020A66A4
:0C09C8007401552AFE7D0074082FF58292
:0E09D400C007C006C005120F1F15811581D087
:0E09E20007EF2F25E0FE24D7901D0093FE2482
:0C09F000FC506DEF242DF98F047D000CED
:0409FC00BC00010D2D
:0E0A0000EDA2E713CC13CC74FA2C901D0093DA
:0E0A0E00FD74015F640175F004A4F5F005F0BD
:030A1C00ED800268
:020A1F00C313FF
:0E0A2100D5F0FB5407F774075F2408F582C078
:0E0A2F0007C006121089AA82AB83ACF0FDD07E
:0C0A3D0006D007EA4B4C4D24FF9218EF46
:0A0A4900243FF9A218E433FD430531
:0C0A530010A705EF2436F974802EF78000
:010A5F000690
:060A6000EF2436F87600D9
:0A0A66007450552AFEBE1002800EE7
:050A7000BE40028012EF
:060A7500BE5003020AF26C
:030A7B00020B115A
:090A7E00EF243FF87600020B1191
:0C0A8700AD2A7E0074082FF582C007C065
:0E0A930005C006120F1F15811581D007EF2434
:0A0AA1003FF9870674104EF7EF24AA
:0C0AAB0036F9EF2F25E024D8901D0093B1
:0C0AB700FE74804EF7EF242DF98F057EB1
:060AC300000DBD00010E54
:0E0AC900EEA2E713CD13CD74FA2D901D00930D
:0E0AD700FE74015F640175F004A4F5F005F0F3
:030AE500EE80029E
:020AE800C31336
:080AEA00D5F0FB540FF7801F4B
:0B0AF200EF2436F9EF2F25E024D89008
:0E0AFD001D0093FE74804EF774082FF582C022
:060B0B00071218C7D00715
:0A0B1100E52A705BEF242DF987063A
:0C0B1B00530680BE804FEF2436F8EF2F09
:0E0B270025E024D6901D0093FE74804EF68FBC
:080B3500057E000DBD00010E5C
:0E0B3D00EEA2E713CD13CD74F62D901D00939C
:0E0B4B00FE74015F640175F004A4F5F005F07E
:030B5900EE800229
:020B5C00C313C1
:0E0B5E00D5F0FB44C0F774082FF582C00712D3
:040B6C0018C7D007CF
:040B70000F0209A6C1
:0E0B7400AF8274075F25E025E024D7901D00B6
:050B820093FEBF080016
:070B87004005EEC4540FFE0F
:090B8E00301806EE0303543FFE8B
:0E0B9700530603EE602BBE03158F82C00712BB
:0E0BA5001089AA82AB83ACF0FDD00763020179
:020BB3008004BC
:040BB50074015EFA6F
:0E0BB9007E00C002C0068F82120F1F1581152C
:010BC70081AC
:010BC800220A
:0C0BC900AF82901DD2E493FE601B7D0003
:070BD500C3ED9E50147C707B
:070BDC00EC60047B018002C4
:020BE3007B0095
:060BE500EB60031C80F12F
:030BEB000D80E793
:0C0BEE00C0071200CDE582D0076525F499
:0A0BFA00FEEF901C6C935EF5822262
:0A0C0400C07CE581F57C2404F58135
:0D0C0E00AF82901D12E4932F2F2F2404902D
:070C1B001D0093FEBF100055
:050C22004003020CA9D3
:0C0C2700EE24F94026743F555AFD7C0075
:0E0C33007B007A00C007C006C005C004C003E5
:0E0C4100C0028F82121185E58124FCF581D05E
:030C4F0006D007C5
:0C0C5200BE0723AA5B7B007C007D00C075
:0E0C5E0007C006C002C003C004C0058F82128A
:0C0C6C001185E58124FCF581D006D0073D
:050C7800BE080280032C
:030C7D00020D4E17
:0A0C8000AD5C7E00AB5B8B04E42D3D
:0E0C8A00FDEC3EFE3395E0FCFBC005C006C04D
:0E0C980004C0038F82121185E58124FCF581D2
:030CA600020D4EEE
:0C0CA9007401555AFA8F82C007C0021275
:0C0CB5001089A87C08A68208A68308A667
:0E0CC100F008F6D0028A047D007E007F00A8B5
:0C0CCF007C08E6620408E6620508E662A4
:0E0CDB000608E66207EC4D4E4FD00760668AB1
:0E0CE900037C007D007E00C007C002C003C077
:0E0CF70004C005C0068F82121185E58124FC21
:0E0D0500F581D002D00774075F25E025E024B9
:0E0D1300D5901D0093FE53060374015EFD6231
:0E0D210002EE6029EA601074075F901C6C936C
:090D2F00FE74FFC39E5228800AE5
:0A0D380074075F901C6C93FE4228C4
:0C0D4200530707C0028F82120D54158168
:060D4E00857C81D07C22AF
:080D5400C07C85817CAF82C2E6
:0C0D5C00187EFFEFC31324CE901D0093FF
:0E0D6800FD74015F75F004A4F5F005F0ED8058
:010D7600027A
:020D7700C313A4
:0B0D7900D5F0FB540FFDBD0102800F00
:060D8400BD0203020E1681
:060D8A00BD0303020E7D13
:030D9000020EE070
:0E0D9300EFFE25E025E024D5901D0093FDE540
:0C0DA1007C24FDF874016675F002A4F5D6
:060DAD00F005F0ED8002EC
:020DB300C31368
:0B0DB500D5F0FB540CFDBD0402800AC9
:050DC000BD0802800ADD
:050DC500BD0C49800A8D
:050DCA00D218020EE04A
:050DCF00C218020EE055
:0C0DD400E57C24FDF8E660178FF005F0C8
:040DE000E524800284
:020DE400C31337
:0B0DE600D5F0FB5401FD24FF92180221
:020DF1000EE012
:0E0DF3008F82C006121089AA82AB83ACF0FD7D
:0C0E0100D006630201EA4B4C4D24FF9226
:040E0D0018020EE0D9
:050E11007EFF020EE06F
:0E0E16008F82C007121089AA82AB83ACF0FD58
:0C0E2400D007EA4B4C4D24FF92188F06BB
:0C0E3000E57C24FDF8E66018EF2F25E0BB
:0C0E3C0024D5901D0093FD30E705C2187E
:030E4800020EE0B7
:050E4B007EFF020EE035
:0E0E5000EF2F25E024D6901D0093FD5305C022
:050E5E00BD4002800A06
:050E6300BD80028009C2
:050E6800BDC00E800872
:040E6D00D218806FA8
:040E7100C218806BB8
:040E7500B2188067C8
:040E79007EFF806315
:0E0E7D0074082FFEEF2F25E024D5901D009362
:0C0E8B00FDE57C24FDF874016675F002A2
:080E9700A4F5F005F0ED800266
:020E9F00C3137B
:0B0EA100D5F0FB540CFDBD0402800ADC
:050EAC00BD08028009F1
:050EB100BD0C2A8008C1
:040EB600C2188026B8
:040EBA00D2188022A8
:0E0EBE0074082FF582C006121089AB82AC8337
:0E0ECC00ADF0FFD006630301EB4C4D4F24FF49
:040EDA0092188002E8
:020EDE007EFF95
:0C0EE000EE24EF402DA218E433FB7C0050
:0E0EEC007D007F00C006C003C004C005C00723
:0D0EFA008E82121185E58124FCF581D00661
:0B0F07008E82C0061218C7D00650F5FD
:030F1200D07C226E
:0A0F1500AF8274402FF5820218C766
:080F1F00C07C85817CAF82E5F6
:0C0F27007C24FCF886030886047D007E14
:0E0F330000C007C003C004C005C0068F8212B4
:0D0F41001185E58124FCF581D0078F821217
:050F4E0018C7D07C2251
:070F5300C2187528007F00A1
:030F5A00BF0800CD
:030F5D004001222E
:0C0F60007E00EF2436F97700EF2408F83B
:0E0F6C007600EF2410F87600EFC31324CE9029
:0E0F7A001D0093FD74015F75F004A4F5F005F1
:040F8800F0ED800206
:020F8C00C3138D
:0B0F8E00D5F0FB540FFDBD01028013E5
:050F9900BD0202804FC3
:050F9E00BD0302800FFD
:060FA300BD09030210115C
:030FA9000210290A
:060FAC00EF243FF876007F
:0E0FB200EF2F25E024D5901D0093FD5305C0C0
:050FC000BD4002800AA3
:050FC500BD8002800B5D
:050FCA00BDC05C800CBD
:060FCF00D2187E018054DF
:060FD500C2187E01804EEF
:080FDB008FF005F074018002A3
:020FE30025E007
:080FE500D5F0FBFD6224803C05
:0E0FED00EF2F25E0FD24D7901D0093FC30E788
:050FFB0004C2187E0194
:0C10000074D82D901D0093FD30E71ED227
:05100C00187E018018B0
:0C101100EF24FE40137780EF242DF876CA
:0C101D0080EF2FFD2419F8760008760003
:0C102900EE6035A218E433FB7C007D0073
:0C1035007E00C007C023C003C004C0053B
:0E104100C0068F82121185E58124FCF581D056
:03104F0023D007A4
:0A1052008F82C007C0231218C7D018
:05105C0023D00750F154
:0E106100EF2F25E024D5901D0093FE530603CB
:0D106F00BE020AEF901C6C93FE421880092F
:09107C00EF901C6C93F4FE521875
:041085000F020F5AED
:0A108900C07CE581F57C2404F581AC
:0D109300AF82901D12E4932F2F2F240490A4
:0C10A0001D0093FEEF24F05003021148E5
:0310AC00BE08007B
:0510AF004067BF0800CE
:0E10B4004023EF24F6401E74015F25E024194E
:0C10C200F98704098705A87C08A604082B
:0B10CE00A605087600087600021172EB
:0E10D90074075FFE2410F987078F057F00A8BB
:0C10E7007C08A60708A605ED3395E0087C
:0E10F300F608F6EE2408F987078F037C007DCF
:0C110100007F00A87C08EB26F6EC083606
:0B110D00F6ED0836F6EF0836F6805AC3
:0E111800EF2408F987077D007407C39EFEE4EC
:0A1126009DFD8EF005F074FF8002BD
:02113000C313E7
:0C113200D5F0FBFE5207A87C08A60708B9
:0A113E007600087600087600802A8B
:0E1148008F067F00EE24F0FEEF34FFFF8EF0E6
:0611560005F0E51880021F
:02115C00C313BB
:0C115E00D5F0FB5401FFA87C08A6070890
:08116A0076000876000876000B
:0C117200A87C0886820886830886F008A6
:07117E00E6857C81D07C2294
:08118500C07C85817CAF8290E3
:0E118D001D12E4932F2F2F2404901D0093FEBB
:08119B00EF24F04063BE0800E0
:0511A3004049BF0800F7
:0E11A800401EEF24F6401974015F25E0241963
:0C11B600F9E57C24FAF88605088606A7F7
:0611C2000509A706806D7F
:0C11C80074075FFE2410F9E57C24FAF89F
:0C11D400088605A705EE2408F9E57C2438
:0E11E000FAF886037C007D007E00A70380479E
:0C11EE00EF2408F9E57C24FAF886037C65
:0911FA00007D007E00A703803295
:0E120300EF24F0FF901C6C93FE74FFC39E520C
:0C12110018E57C24FAF8740156FB7C0000
:0B121D007D007E008FF005F0EB8002EA
:0212280025E0BF
:0B122A00D5F0FBFFE518FE42078F180F
:03123500D07C2248
:0E1238007584007585FD75802275D181E4F501
:041246002BF52C2236
:0E124A00C0E0C0D0C2AAC28E740F5589242005
:0E125800F589758B35758D80C28FD28ED2AB25
:06126600757602C205D2FC
:05126C0003757500751B
:091271007400D204D0D0D0E032A8
:0C127A00C023C0E0C0F0C082C083C007E9
:0E128600C006C005C004C003C002C001C00005
:0A129400C0D075D000C07CE581F5E4
:0A129E007C2404F581E576FF24F1BD
:0512A80050030217DDF8
:0712AD00EF2F2F9012B47324
:0712B4000212E10217DD0246
:0612BB0015770216370250
:0612C10016400216CA02ED
:0612C70017DD0217DD0235
:0612CD0017DD0217DD022F
:0612D30016EC02175402A4
:0612D90017DD0217780288
:0212DF0017C630
:0E12E100C28E740F55892420F589758B807597
:0A12EF008D80C28FD28EE578B579AC
:0412F9000302157067
:0812FD00E579246AF98707C2B4
:0C130500187DFE7E00EFA2E5E433FC241E
:06131100FF9219BF8000ED
:05131700400302144434
:0C131C00C005C006EF2323540124FF92FB
:0B1328001A53071F8F82C007C005C0CA
:0C13330023121089AA82AB83ACF0FED01C
:0A133F0023D005D007A87C08A60201
:0E13490008A60308A60408A606901D11E4934A
:0E135700FE0EEF2FFD2EFC04901D0093FEB540
:0413650007028006F5
:06136900D006D005800F44
:0E136F00D006D0058C8275831DE493FCFD7EB4
:01137D00006F
:09137E00BDFE06BE000302151FAE
:0A1387007553BC901D17E493FC8C15
:0A13910054901D18E493FC8C55EDF8
:0C139B002DFD2417901D0093FE8E56744B
:0A13A700182D901D0093FE8E57755F
:0613B1005900301A057519
:0413B7005A40800315
:0313BB00755A80E0
:0E13BE00901D12E4932F2FFE2F2404901D008B
:0C13CC0093FE24F95006EE24FBFE800284
:0213D8007E0194
:0C13DA0074E02EF558EE24FE500F74064F
:0A13E6002E2453F9A87C088605A701
:0313F00005801065
:0C13F300A87C08743F56FAE4FBFCFDEAFD
:0413FF00255AF55A1C
:0C140300EE24FD500E74052E2453F9A8B1
:07140F007C08088605A70513
:0C141600EE24FC500F74042E2453F9A89F
:081422007C0808088605A705F7
:0C142A00EE24FB501074032E2453F9A88C
:091436007C080808088606A706D8
:05143F00D21802151F88
:0A1444007553B0901D17E493FE8E5F
:0A144E0054901D18E493FE8E55859E
:031458004C56856A
:0A145B004D5753071FEF24FA50030A
:0314650002151D50
:07146800EF2F2F90146F73AA
:07146F0002151D02148102A9
:06147600148D0214A40213
:05147C0014B502151576
:0814810075586074C22552F594
:041489005902151DD2
:08148D007558637443254EF508
:0514950059755A407575
:06149A005B00755C12D23C
:0414A0001102151D03
:0714A4007556007557007535
:0614AB0058E175590175BE
:0414B1005A408068B5
:0214B5007F00B6
:0A14B700C3EF954F503CE55070263E
:0A14C100740A2F2453F87600AD5191
:0E14CB007E008F037C00EB2DFDEC3EFEBD602D
:0B14D9001CBE0019740A2F2453F8A653
:0314E4007A800FFC
:0A14E700740A2F2453F9EF255190E9
:0514F1001D0093FEF751
:0314F6000F80BEA6
:0914F9007463254FF55874424557
:061502004EF5597440454E
:041508004FF55A85BC
:03150C00505B85AC
:03150F00515CD25A
:031512001180083D
:07151500755860755981C291
:01151C0010BE
:02151D00D218E2
:08151F0030190674DF5553F585
:011527005370
:0A15280030183DC2AAE5767032E5E6
:0A15320079246AF9E7FF20E5077449
:06153C00204FF775770057
:0B15420074FC2577400512182F80165E
:06154D000579537907C285
:041553000DC21112A2
:0C1557001801C28E758DF0758B00D28ECD
:05156300D2AA0217DD11
:061568000579537907022A
:02156E0017DD87
:07157000C28ED2AA0217DDB2
:0A157700A28BB39218C28B757603A5
:0A158100758D00E575700A7575019F
:05158B00C206C20702C8
:0215900017DD65
:0A159200747F2575401C301808B264
:04159C0005E57525C7
:0315A00074F5746B
:0515A300E5752575F55A
:0615A8007560030217DD6F
:0615AE007575810217DDD6
:0A15B400C28EC28FA205201801B3F9
:0A15BE00502CE572700E74CCB57469
:0315C80002D20646
:0715CB00740CB57402D20795
:0715D200200619200716E5B1
:0815D9007224E94010E57224C0
:0615E10053F8E574F66208
:0515E700730572800293
:0215EC00C20338
:0515EE00100D02801D3C
:0715F30030061430031175EE
:0715FA0077041011028009C3
:07160100E54E2404F54E53F1
:021608004E3C56
:06160A001218010217DDB9
:0716100030031E20061B2021
:0C1617000718740F55892410F589758D93
:0C162300FA758B70D28E757604D2AA0284
:02162F0017DDC5
:061631001218010217DD92
:09163700758D807576020217DD45
:06164000200B030216C49A
:0C164600E57224F85078C28E740F5589AC
:0D1652002410F589758DEF758B42D28EC284
:07165F0008E55830E71F8584
:051666005682C057127E
:0B166B001879AF821581BFFF028002DA
:02167600D20898
:09167800E556701CE5577018D20C
:03168100088014CA
:0C168400901D17E493FFB5560B901D1845
:08169000E493FFB55702D208F4
:0A16980074FFB57321740F5558FF5D
:0C16A2007E0074082FFFE43EFEAC727D59
:0C16AE0000EFB5040BEEB50507D21230BA
:0416BA000802D20947
:0616BE007576050217DD40
:0616C4001218010217DDFF
:0916CA00C28E30121330080AD25E
:0516D3000E12182FC2E9
:0416D8000D0217DD0B
:0616DC001218010217DDE7
:0616E200D20F12182FC206
:0416E8000D0217DDFB
:0816EC00E5722453F987073071
:0416F4000E027FCC97
:0516F800300F027F0C21
:0916FD00C2AA740AB5760280034A
:031706000217DDEA
:0A170900E575247F402CE5755F7044
:0917130008D296C20CB205800256
:02171C00D20CED
:08171E00E5757007757501C245
:0317260005800635
:05172900E5752575F5D2
:01172E007545
:07172F00E57570037575817B
:0517360075760B801325
:09173B00200506D296C20C8002C2
:02174400D20CC5
:06174600057275750075C7
:02174C00760D18
:06174E00758D120217DD8B
:0A175400E57270077401B575020517
:01175E007713
:0A175F00C296A20C828B5007C20D47
:051769001218018006CA
:06176E0075760A758D6E10
:04177400C28B80653F
:0E177800C296C28E740F55892410F589758DA6
:0A178600FB758B90D28E200E03300D
:021790000F0543
:05179200121801802B7C
:0C179700740F5558FF7E0074072FFFE40C
:0C17A3003EFEAC727D00C3EF9CEE648043
:0C17AF008DF063F08095F05007D20A1214
:0417BB00180180038E
:0317BF0075760E2E
:0417C200C28B80173F
:0E17C600C28E740F55892420F589758D6E75BD
:0917D4008B80C28FD28E75760A5B
:0617DD00D204857C81D0DE
:0C17E3007CD0D0D000D001D002D003D0C8
:0E17EF0004D005D006D007D083D082D0F0D031
:0417FD00E0D02332E3
:0A180100757600C28BC28EC2AB7573
:0A180B007300757200C28E740F5551
:0C181500892410F589758D89758BAFC290
:0A1821000EC20FC28FD28ED2AAD2DF
:04182B00ABC2122218
:0E182F00C28E740F55892420F589758D6E7553
:0C183D008B80C28F740F55582407FF7574
:0418490073FF7E00AB
:0C184D00C3EE9F500BEE2453F9E7FD6240
:04185900730E80F09A
:07185D00EF2453F8A673C24B
:0418640006C207D2DF
:051868000D75760A7504
:0A186D007500757200C2AAD28ED277
:02187700AB22A2
:0A187900C07C85817CAF827EFF9069
:081883001D16E493FDBDFF00FA
:0E188B005035901D16E493602E901D16E493C8
:02189900FD1D33
:0E189B00ED6024ED2DFC2417901D0093FBEF53
:0C18A900B5031374182C901D0093FCE58F
:0A18B5007C24FDF8E6B504028D0660
:0318BF001D80D9B0
:0518C2008E82D07C22A3
:0718C700AF82C218BF400010
:0C18CE00501B8F82C007C023121C05E5D0
:0C18DA0082D023D0075444FEBE4402809C
:0118E60004FD
:0418E700D218802A69
:0918EB00AD787E000DBD00010E78
:0C18F4005305077E00AB797C00EBB505C6
:0719000006ECB50602800EA3
:08190700E578246AF8A6070543
:05190F0078537807D2B7
:0119140018BA
:05191500D28EA2182291
:0A191A00C07CE581F57C2404F58112
:09192400C209AF5974C35FFEA8AB
:05192D007C08A65AE54C
:0919320056FC7049E5577045E5CB
:07193B007A20E003021BFF0C
:09194200EE7020A87C08B6C01A62
:0C194B00E57670FCC2AF75E40075E71D86
:0A19570075E617855BE5855CE57514
:04196100E468D2AFB5
:05196500BE0102800339
:03196A00021BFF5E
:09196D00A87C08E66003021BFFE0
:091976007582831218C7021BFFE1
:08197F00E55830E703021B4AA2
:0C198700901D17E493FBECB503028003F5
:03199300021BFF35
:0B199600901D18E493FBB5570280037E
:0319A100021BFF27
:0819A400757B00BE4202801BAE
:0619AC00BE4303021ADE37
:0619B200BE8003021B04CD
:0619B800BE8103021B26A4
:0619BE00BE8303021B3F83
:0319C400021BFF04
:0619C700201003021BFFCB
:0A19CD00743C5FF552A87C08E65454
:0A19D700F0F6A87C08B68002800339
:0319E100021ABD2A
:0B19E4007582811218C7740F555AFF5E
:0A19EF00E57670FCC2AF75E400AAB3
:0A19F9005B74015A241CFCAE5CA8CC
:051A03007C08087600DC
:0C1A0800A87C0808C3E69F4003021AB83F
:0C1A1400EA703CC002E57C2403F8A60642
:0C1A2000087600A87C080886037D00E51D
:0C1A2C007C2403F8EB26FBED0836FDBB24
:071A38006005BD00028004FF
:041A3F00D00280262B
:0A1A4300D002A87C0808740A2624CB
:061A4D0053F9877A8016B0
:0B1A53008CE7A87C0808E62EF5E6A84A
:0A1A5E007C0808740A262453F98757
:011A6800E598
:0A1A69008E037D00A87C0808E57CD0
:0C1A73002403F9E6F7097700E57C240362
:0E1A7F00F8E62BFB08E63D53033F7D00BB3F1E
:0D1A8D0022BD001F8F037D001BBBFF011D4C
:0C1A9A00E57C2403F8E6B5030708E6B578
:041AA60005028006AF
:061AAA0075E46875E4001C
:081AB000A87C080806021A08D0
:051AB80075E468D2AFE7
:091ABD00A87C08E66003021BFF8F
:041AC600855A4F8569
:031ACA005B5085E9
:061ACD005C5175828112DC
:091AD30018C77582841218C702BD
:021ADC001BFFEE
:0A1ADE00743C5FF552A87C08B68046
:041AE8000343A2080A
:091AEC00A87C08E66003021BFF60
:0D1AF5007582811218C77582821218C7020F
:021B02001BFFC7
:061B0400301003021BFF7C
:041B0A00D21085541C
:031B0E004C8555AE
:051B11004D754E00C2FD
:0C1B16001175D16075D20B75D3B375D179
:041B220061021BFF42
:071B2600E554B54C028003F9
:031B2D00021BFF99
:071B3000E555B54D028003ED
:031B3700021BFF8F
:051B3A00C210021BFFB8
:091B3F007582851218C7C210025C
:021B48001BFF81
:061B4A00EE6003021BFF28
:0C1B5000C0578C82121879AF821581BF3B
:051B5C00FF03021BFF66
:0E1B6100901D11E493FEF58275831DE493251B
:0C1B6F00E02EFD0EA87C0874C056FCE4BB
:041B7B00BC80010425
:011B7F00FC69
:081B8000C3EE9D4003021BFFB0
:0E1B88008E8275831DE493FBEFB50366EE04B9
:0E1B9600901D0093FBF582C007C006C005C07D
:0E1BA40004C003121C05AA82D003D004D00591
:0E1BB200D006D007EC602EC00474145AFCBCA0
:041BC0001402800487
:041BC400D004801FAA
:0E1BC800D0048B82C007C006C005C004C00355
:0E1BD600C002120C04D002D003D004D005D0FF
:031BE40006D00721
:0C1BE700A87C08E6700D53020CBA0C0C30
:071BF3008B82120F15800523
:051BFA000E0E021B802D
:061BFF00857C81D07C22F0
:0E1C0500AF82901D12E493FE0E0E0EEF2E2FF6
:081C13002F901D0093F58222C1
:0E1C1B0075950075911475924CC296758921CD
:0E1C2900758F00C28CC28E758D80758B80C247
:0C1C37008FC20475A88075E80075B80421
:0A1C430075B70CD28A757A2EC2061E
:051C4D00C207C20EC237
:041C52000FC209D2E2
:051C56000B757800751C
:061C5B007900754E00C285
:041C610011C210128A
:031C650018012241
:06005200E478FFF6D8FD82
:080030007900E94400601B7A2D
:0500380000901C74782B
:03003D000075A0AB
:0A00400000E493F2A308B8000205E3
:08004A00A0D9F4DAF275A0FF61
:080058007800E84400600A7919
:030060000075A088
:0600630000E4F309D8FCE3
:080069007800E84400600C7906
:0B00710000900000E4F0A3D8FCD9FAD6
:0300230075817C68
:0A002600121C68E582600302001E50
:041C6800758200225F
:00000001FF
